:0400000080311B2808
:100008007E1480310B1F09280A2819282100901E08
:100018000E280F2819282000901E132814281928A4
:100028006F088A006E080A0080317E10090080314E
:100038001D283830840083308500C83086000030A1
:1000480087001B308331AB238031FC015C30840096
:100058000030850010308331B1238031A030840016
:100068000030850028308331B12380317E10200094
:10007800813173292000BB00330886008701403F87
:10008800B500413FB60035088400360885001200E7
:10009800253A031D50285128C928330886008701AE
:1000A8000130810741310318810AE401E501031099
:1000B800003003180130E800FF30E600FF30E700A9
:1000C800330886008701403FB500413FB600350838
:1000D8008400360885001200733A031974287528BD
:1000E8008D28330886008701403FF100413FF20028
:1000F800D530F3008330F4000330F5000030F6000B
:100108008131E521803171087204031D8C288D2806
:10011800BF282000330886008701403FB500413FD3
:10012800B60035088400360885001200733A0319B2
:100138009E289F28A4280330B9000030BA00A828B8
:100148000130B9000030BA00330886008701390849
:10015800810741313A08813D7F31340886008701A3
:10016800403F84008501810A0008FB003B0880317C
:10017800E2208031E1282000330886008701013021
:10018800810741310318810AE12833088600870175
:10019800403FB500413FB600350884003608850069
:1001A8000008B700B8013708F3003808F4003B0826
:1001B800F500823141228031BF2808002000AD00BF
:1001C800DC30860000308700223084000030850053
:1001D8000730A00016001A00A00BEE287B08B0001C
:1001E8003008031DF828F928FB282230B000300811
:1001F80083316B23803172082000AF007108AE0094
:100208006708B2006608B100B21B0B290C29202927
:100218003208803AA0002F08803A2002031D1629D0
:100228002E083102031C19291A291B29202920000C
:100238003208AF003108AE0020002F08B2002E08A7
:10024800B1006508AA006408A90039292030F30024
:100258000030F40020002D08F50082314122803161
:1002680001302000AE070030AF3D2F08803AA000D3
:100278002A08803A2002031D432929082E02031C5C
:10028800462947292A292000AB01AC01642920000E
:100298003008860087010108A000A1012008F300AA
:1002A8002108F4002D08F500823141228031013007
:1002B8002000A0002008B0070130AB070030AC3D9B
:1002C8002C08803AA0003208803A2002031D6E29CB
:1002D80031082B02031C712972294B29080083312C
:1002E8009A23813141302000C700EE30890B7A29EA
:1002F800C70B7A290000031022008C1E0314031870
:100308008629892922008C168B2922008C124130DB
:100318002000C700EE30890B8F29C70B8F290000FA
:10032800031022008C1C031403189B299E29220009
:100338008C14A02922008C1041302000C700EE3018
:10034800890BA429C70BA4290000031022000C1D47
:1003580003140318B029B32922000C15B52922006B
:100368000C1141302000C700EE30890BB929C70BAA
:10037800B9290000031022008E1E03140318C52992
:10038800C82922008E16CA2922008E12C83086007B
:100398000030870048308400003085001430200089
:1003A800C70016001A00C70BD529D930C3008330FF
:1003B800C4004830C50083318223813176298031D9
:1003C8001B287208F9007108F8007408FB0073080C
:1003D800FA000130F5020030F63B750A031DF829D2
:1003E800760A031DF829F929082AF101F201402AA1
:1003F8000130F8070030F93D0130FA070030FB3DC5
:100408000130F5020030F63B780884007908850051
:1004180012000319102A112A302A7A0884007B084E
:10042800850012000319192A1A2A302A7508760439
:1004380003191F2A202A302A7A0884007B0885009D
:100448000008F70078088400790885000008770616
:1004580003192F2A302AFC29780884007908850096
:100468000008F7007A0884007B08850000087702F6
:10047800F100F201031CF203080075080319452A6C
:10048800462A4B2A7508031D4A2A4B2A502A730804
:100498008331B7238231812A7508083E8600870197
:1004A800160001040319592A5A2A782A7508083EA1
:1004B80086008701403FF600413FF7007508023E7D
:1004C80086008701403FF800413FF9007908803AEB
:1004D800FA007708803A7A02031D742A76087802AF
:1004E8000318772A782A812A7508023E8600870130
:1004F8000130810741310318810A08007C085C3EFD
:1005080086008701810123001D1D8B2A8C2A972ACA
:100518007C085C3E86008701811420006D088A00F3
:100528006C080A00823123009D1C9B2A9C2AA72A5A
:100538007C085C3E860087010115210066088A0058
:1005480065080A0082317C085C3E86008701010844
:100558000319AF2AB02AB72A210064088A00630861
:100568000A008231BA2A83315323823108002200DB
:100578008C018D018E01113021008C0070308D00AE
:10058800DF308E00CF3023008E0050308D001130C8
:100598008C0024008D018C018E0121009517250007
:1005A8008C018D018E01373026008C00F0308D00D3
:1005B800FF308E003F3027008C00F0308D00FF3078
:1005C8008E000D303C00A40012303D009F00080052
:1005D800210090128230F1000230F2008331BD23F5
:1005E8008231083023009F0090309D0024309E0007
:1005F80067309B009C01E530F1000330F200833145
:10060800C9238231DD30F1000330F2008331C32386
:100618008231E130F1000330F2008331CF2382319F
:100628002000E901FC01EB01EA0121009016080015
:100638002000C0003D08C2003C08C1002B2B4130FF
:10064800B3003E08B400400880313E2083312000CA
:1006580041088400420885001200031D342B352B05
:10066800232BBC01BD010800483465346C346C345C
:100678006F34203457346F3472346C34643400343B
:1006880000340034003400340034003400340034C2
:1006980028346E3475346C346C34293400347C0856
:1006A800C03E860087012300190881000130F00050
:1006B8007008FC0708307C02031C632B642B652B35
:1006C800FC010130F00070082000EA070800F5007E
:1006D8007508F400732B0130F3007308F5077508EB
:1006E800860087010108031D7A2B7B2B6F2B74086A
:1006F8007502F100F201F11BF203080045302000F9
:10070800C6004408BD004308BC004630BE000030A7
:1007180083311C2383310800F1002000101E952B23
:10072800962B912B710823009A0008008231BB2276
:1007380083318331A42383318231EC228331080051
:100748006830210099009801220096010800FE00F7
:1007580012001E00FE0BAC2B003464008001013136
:10076800890BB22B0034F200720883319023833155
:10077800080072082000EF007108EE0008007208F7
:100788002100E6007108E500080072082000ED006D
:100798007108EC00080072082100E4007108E30009
:1007A80008006C346C3473340034253473340A34E0
:1007B800003423001D121D16080083315323833192
:0407C800080008001D
:020000040001F9
:08000000FF3FFF3FFF3FFF3F00
:06000E00FC3FFF3E9F3F96
:00000001FF
